{"abi":[{"type":"constructor","inputs":[{"name":"_token","type":"address","internalType":"contract IERC20"},{"name":"_allowlist","type":"address[]","internalType":"address[]"},{"name":"_rnmProxy","type":"address","internalType":"address"},{"name":"_router","type":"address","internalType":"address"}],"stateMutability":"nonpayable"},{"type":"function","name":"acceptOwnership","inputs":[],"outputs":[],"stateMutability":"nonpayable"},{"type":"function","name":"applyAllowListUpdates","inputs":[{"name":"removes","type":"address[]","internalType":"address[]"},{"name":"adds","type":"address[]","internalType":"address[]"}],"outputs":[],"stateMutability":"nonpayable"},{"type":"function","name":"applyChainUpdates","inputs":[{"name":"chains","type":"tuple[]","internalType":"struct TokenPool.ChainUpdate[]","components":[{"name":"remoteChainSelector","type":"uint64","internalType":"uint64"},{"name":"allowed","type":"bool","internalType":"bool"},{"name":"remotePoolAddress","type":"bytes","internalType":"bytes"},{"name":"remoteTokenAddress","type":"bytes","internalType":"bytes"},{"name":"outboundRateLimiterConfig","type":"tuple","internalType":"struct RateLimiter.Config","components":[{"name":"isEnabled","type":"bool","internalType":"bool"},{"name":"capacity","type":"uint128","internalType":"uint128"},{"name":"rate","type":"uint128","internalType":"uint128"}]},{"name":"inboundRateLimiterConfig","type":"tuple","internalType":"struct RateLimiter.Config","components":[{"name":"isEnabled","type":"bool","internalType":"bool"},{"name":"capacity","type":"uint128","internalType":"uint128"},{"name":"rate","type":"uint128","internalType":"uint128"}]}]}],"outputs":[],"stateMutability":"nonpayable"},{"type":"function","name":"getAllowList","inputs":[],"outputs":[{"name":"","type":"address[]","internalType":"address[]"}],"stateMutability":"view"},{"type":"function","name":"getAllowListEnabled","inputs":[],"outputs":[{"name":"","type":"bool","internalType":"bool"}],"stateMutability":"view"},{"type":"function","name":"getCurrentInboundRateLimiterState","inputs":[{"name":"remoteChainSelector","type":"uint64","internalType":"uint64"}],"outputs":[{"name":"","type":"tuple","internalType":"struct RateLimiter.TokenBucket","components":[{"name":"tokens","type":"uint128","internalType":"uint128"},{"name":"lastUpdated","type":"uint32","internalType":"uint32"},{"name":"isEnabled","type":"bool","internalType":"bool"},{"name":"capacity","type":"uint128","internalType":"uint128"},{"name":"rate","type":"uint128","internalType":"uint128"}]}],"stateMutability":"view"},{"type":"function","name":"getCurrentOutboundRateLimiterState","inputs":[{"name":"remoteChainSelector","type":"uint64","internalType":"uint64"}],"outputs":[{"name":"","type":"tuple","internalType":"struct RateLimiter.TokenBucket","components":[{"name":"tokens","type":"uint128","internalType":"uint128"},{"name":"lastUpdated","type":"uint32","internalType":"uint32"},{"name":"isEnabled","type":"bool","internalType":"bool"},{"name":"capacity","type":"uint128","internalType":"uint128"},{"name":"rate","type":"uint128","internalType":"uint128"}]}],"stateMutability":"view"},{"type":"function","name":"getRateLimitAdmin","inputs":[],"outputs":[{"name":"","type":"address","internalType":"address"}],"stateMutability":"view"},{"type":"function","name":"getRemotePool","inputs":[{"name":"remoteChainSelector","type":"uint64","internalType":"uint64"}],"outputs":[{"name":"","type":"bytes","internalType":"bytes"}],"stateMutability":"view"},{"type":"function","name":"getRemoteToken","inputs":[{"name":"remoteChainSelector","type":"uint64","internalType":"uint64"}],"outputs":[{"name":"","type":"bytes","internalType":"bytes"}],"stateMutability":"view"},{"type":"function","name":"getRmnProxy","inputs":[],"outputs":[{"name":"rmnProxy","type":"address","internalType":"address"}],"stateMutability":"view"},{"type":"function","name":"getRouter","inputs":[],"outputs":[{"name":"router","type":"address","internalType":"address"}],"stateMutability":"view"},{"type":"function","name":"getStakedBalance","inputs":[{"name":"user","type":"address","internalType":"address"}],"outputs":[{"name":"","type":"uint256","internalType":"uint256"}],"stateMutability":"view"},{"type":"function","name":"getStakingTimestamp","inputs":[{"name":"user","type":"address","internalType":"address"}],"outputs":[{"name":"","type":"uint256","internalType":"uint256"}],"stateMutability":"view"},{"type":"function","name":"getSupportedChains","inputs":[],"outputs":[{"name":"","type":"uint64[]","internalType":"uint64[]"}],"stateMutability":"view"},{"type":"function","name":"getToken","inputs":[],"outputs":[{"name":"token","type":"address","internalType":"contract IERC20"}],"stateMutability":"view"},{"type":"function","name":"getTotalStaked","inputs":[],"outputs":[{"name":"","type":"uint256","internalType":"uint256"}],"stateMutability":"view"},{"type":"function","name":"getVotingPower","inputs":[{"name":"user","type":"address","internalType":"address"}],"outputs":[{"name":"","type":"uint256","internalType":"uint256"}],"stateMutability":"view"},{"type":"function","name":"isSupportedChain","inputs":[{"name":"remoteChainSelector","type":"uint64","internalType":"uint64"}],"outputs":[{"name":"","type":"bool","internalType":"bool"}],"stateMutability":"view"},{"type":"function","name":"isSupportedToken","inputs":[{"name":"token","type":"address","internalType":"address"}],"outputs":[{"name":"","type":"bool","internalType":"bool"}],"stateMutability":"view"},{"type":"function","name":"lockOrBurn","inputs":[{"name":"lockOrBurnIn","type":"tuple","internalType":"struct Pool.LockOrBurnInV1","components":[{"name":"receiver","type":"bytes","internalType":"bytes"},{"name":"remoteChainSelector","type":"uint64","internalType":"uint64"},{"name":"originalSender","type":"address","internalType":"address"},{"name":"amount","type":"uint256","internalType":"uint256"},{"name":"localToken","type":"address","internalType":"address"}]}],"outputs":[{"name":"lockOrBurnOut","type":"tuple","internalType":"struct Pool.LockOrBurnOutV1","components":[{"name":"destTokenAddress","type":"bytes","internalType":"bytes"},{"name":"destPoolData","type":"bytes","internalType":"bytes"}]}],"stateMutability":"nonpayable"},{"type":"function","name":"owner","inputs":[],"outputs":[{"name":"","type":"address","internalType":"address"}],"stateMutability":"view"},{"type":"function","name":"releaseOrMint","inputs":[{"name":"releaseOrMintIn","type":"tuple","internalType":"struct Pool.ReleaseOrMintInV1","components":[{"name":"originalSender","type":"bytes","internalType":"bytes"},{"name":"remoteChainSelector","type":"uint64","internalType":"uint64"},{"name":"receiver","type":"address","internalType":"address"},{"name":"amount","type":"uint256","internalType":"uint256"},{"name":"localToken","type":"address","internalType":"address"},{"name":"sourcePoolAddress","type":"bytes","internalType":"bytes"},{"name":"sourcePoolData","type":"bytes","internalType":"bytes"},{"name":"offchainTokenData","type":"bytes","internalType":"bytes"}]}],"outputs":[{"name":"releaseOrMintOut","type":"tuple","internalType":"struct Pool.ReleaseOrMintOutV1","components":[{"name":"destinationAmount","type":"uint256","internalType":"uint256"}]}],"stateMutability":"nonpayable"},{"type":"function","name":"setChainRateLimiterConfig","inputs":[{"name":"remoteChainSelector","type":"uint64","internalType":"uint64"},{"name":"outboundConfig","type":"tuple","internalType":"struct RateLimiter.Config","components":[{"name":"isEnabled","type":"bool","internalType":"bool"},{"name":"capacity","type":"uint128","internalType":"uint128"},{"name":"rate","type":"uint128","internalType":"uint128"}]},{"name":"inboundConfig","type":"tuple","internalType":"struct RateLimiter.Config","components":[{"name":"isEnabled","type":"bool","internalType":"bool"},{"name":"capacity","type":"uint128","internalType":"uint128"},{"name":"rate","type":"uint128","internalType":"uint128"}]}],"outputs":[],"stateMutability":"nonpayable"},{"type":"function","name":"setRateLimitAdmin","inputs":[{"name":"rateLimitAdmin","type":"address","internalType":"address"}],"outputs":[],"stateMutability":"nonpayable"},{"type":"function","name":"setRemotePool","inputs":[{"name":"remoteChainSelector","type":"uint64","internalType":"uint64"},{"name":"remotePoolAddress","type":"bytes","internalType":"bytes"}],"outputs":[],"stateMutability":"nonpayable"},{"type":"function","name":"setRouter","inputs":[{"name":"newRouter","type":"address","internalType":"address"}],"outputs":[],"stateMutability":"nonpayable"},{"type":"function","name":"stake","inputs":[{"name":"amount","type":"uint256","internalType":"uint256"}],"outputs":[],"stateMutability":"nonpayable"},{"type":"function","name":"supportsInterface","inputs":[{"name":"interfaceId","type":"bytes4","internalType":"bytes4"}],"outputs":[{"name":"","type":"bool","internalType":"bool"}],"stateMutability":"pure"},{"type":"function","name":"transferOwnership","inputs":[{"name":"to","type":"address","internalType":"address"}],"outputs":[],"stateMutability":"nonpayable"},{"type":"function","name":"unstake","inputs":[{"name":"amount","type":"uint256","internalType":"uint256"}],"outputs":[],"stateMutability":"nonpayable"},{"type":"event","name":"AllowListAdd","inputs":[{"name":"sender","type":"address","indexed":false,"internalType":"address"}],"anonymous":false},{"type":"event","name":"AllowListRemove","inputs":[{"name":"sender","type":"address","indexed":false,"internalType":"address"}],"anonymous":false},{"type":"event","name":"Burned","inputs":[{"name":"sender","type":"address","indexed":true,"internalType":"address"},{"name":"amount","type":"uint256","indexed":false,"internalType":"uint256"}],"anonymous":false},{"type":"event","name":"ChainAdded","inputs":[{"name":"remoteChainSelector","type":"uint64","indexed":false,"internalType":"uint64"},{"name":"remoteToken","type":"bytes","indexed":false,"internalType":"bytes"},{"name":"outboundRateLimiterConfig","type":"tuple","indexed":false,"internalType":"struct RateLimiter.Config","components":[{"name":"isEnabled","type":"bool","internalType":"bool"},{"name":"capacity","type":"uint128","internalType":"uint128"},{"name":"rate","type":"uint128","internalType":"uint128"}]},{"name":"inboundRateLimiterConfig","type":"tuple","indexed":false,"internalType":"struct RateLimiter.Config","components":[{"name":"isEnabled","type":"bool","internalType":"bool"},{"name":"capacity","type":"uint128","internalType":"uint128"},{"name":"rate","type":"uint128","internalType":"uint128"}]}],"anonymous":false},{"type":"event","name":"ChainConfigured","inputs":[{"name":"remoteChainSelector","type":"uint64","indexed":false,"internalType":"uint64"},{"name":"outboundRateLimiterConfig","type":"tuple","indexed":false,"internalType":"struct RateLimiter.Config","components":[{"name":"isEnabled","type":"bool","internalType":"bool"},{"name":"capacity","type":"uint128","internalType":"uint128"},{"name":"rate","type":"uint128","internalType":"uint128"}]},{"name":"inboundRateLimiterConfig","type":"tuple","indexed":false,"internalType":"struct RateLimiter.Config","components":[{"name":"isEnabled","type":"bool","internalType":"bool"},{"name":"capacity","type":"uint128","internalType":"uint128"},{"name":"rate","type":"uint128","internalType":"uint128"}]}],"anonymous":false},{"type":"event","name":"ChainRemoved","inputs":[{"name":"remoteChainSelector","type":"uint64","indexed":false,"internalType":"uint64"}],"anonymous":false},{"type":"event","name":"ConfigChanged","inputs":[{"name":"config","type":"tuple","indexed":false,"internalType":"struct RateLimiter.Config","components":[{"name":"isEnabled","type":"bool","internalType":"bool"},{"name":"capacity","type":"uint128","internalType":"uint128"},{"name":"rate","type":"uint128","internalType":"uint128"}]}],"anonymous":false},{"type":"event","name":"Locked","inputs":[{"name":"sender","type":"address","indexed":true,"internalType":"address"},{"name":"amount","type":"uint256","indexed":false,"internalType":"uint256"}],"anonymous":false},{"type":"event","name":"Minted","inputs":[{"name":"sender","type":"address","indexed":true,"internalType":"address"},{"name":"recipient","type":"address","indexed":true,"internalType":"address"},{"name":"amount","type":"uint256","indexed":false,"internalType":"uint256"}],"anonymous":false},{"type":"event","name":"OwnershipTransferRequested","inputs":[{"name":"from","type":"address","indexed":true,"internalType":"address"},{"name":"to","type":"address","indexed":true,"internalType":"address"}],"anonymous":false},{"type":"event","name":"OwnershipTransferred","inputs":[{"name":"from","type":"address","indexed":true,"internalType":"address"},{"name":"to","type":"address","indexed":true,"internalType":"address"}],"anonymous":false},{"type":"event","name":"Released","inputs":[{"name":"sender","type":"address","indexed":true,"internalType":"address"},{"name":"recipient","type":"address","indexed":true,"internalType":"address"},{"name":"amount","type":"uint256","indexed":false,"internalType":"uint256"}],"anonymous":false},{"type":"event","name":"RemotePoolSet","inputs":[{"name":"remoteChainSelector","type":"uint64","indexed":true,"internalType":"uint64"},{"name":"previousPoolAddress","type":"bytes","indexed":false,"internalType":"bytes"},{"name":"remotePoolAddress","type":"bytes","indexed":false,"internalType":"bytes"}],"anonymous":false},{"type":"event","name":"RouterUpdated","inputs":[{"name":"oldRouter","type":"address","indexed":false,"internalType":"address"},{"name":"newRouter","type":"address","indexed":false,"internalType":"address"}],"anonymous":false},{"type":"event","name":"TokensConsumed","inputs":[{"name":"tokens","type":"uint256","indexed":false,"internalType":"uint256"}],"anonymous":false},{"type":"event","name":"TokensStaked","inputs":[{"name":"user","type":"address","indexed":true,"internalType":"address"},{"name":"amount","type":"uint256","indexed":false,"internalType":"uint256"},{"name":"timestamp","type":"uint256","indexed":false,"internalType":"uint256"}],"anonymous":false},{"type":"event","name":"TokensUnstaked","inputs":[{"name":"user","type":"address","indexed":true,"internalType":"address"},{"name":"amount","type":"uint256","indexed":false,"internalType":"uint256"},{"name":"timestamp","type":"uint256","indexed":false,"internalType":"uint256"}],"anonymous":false},{"type":"error","name":"AggregateValueMaxCapacityExceeded","inputs":[{"name":"capacity","type":"uint256","internalType":"uint256"},{"name":"requested","type":"uint256","internalType":"uint256"}]},{"type":"error","name":"AggregateValueRateLimitReached","inputs":[{"name":"minWaitInSeconds","type":"uint256","internalType":"uint256"},{"name":"available","type":"uint256","internalType":"uint256"}]},{"type":"error","name":"AllowListNotEnabled","inputs":[]},{"type":"error","name":"BucketOverfilled","inputs":[]},{"type":"error","name":"CallerIsNotARampOnRouter","inputs":[{"name":"caller","type":"address","internalType":"address"}]},{"type":"error","name":"ChainAlreadyExists","inputs":[{"name":"chainSelector","type":"uint64","internalType":"uint64"}]},{"type":"error","name":"ChainNotAllowed","inputs":[{"name":"remoteChainSelector","type":"uint64","internalType":"uint64"}]},{"type":"error","name":"CursedByRMN","inputs":[]},{"type":"error","name":"DisabledNonZeroRateLimit","inputs":[{"name":"config","type":"tuple","internalType":"struct RateLimiter.Config","components":[{"name":"isEnabled","type":"bool","internalType":"bool"},{"name":"capacity","type":"uint128","internalType":"uint128"},{"name":"rate","type":"uint128","internalType":"uint128"}]}]},{"type":"error","name":"InvalidRateLimitRate","inputs":[{"name":"rateLimiterConfig","type":"tuple","internalType":"struct RateLimiter.Config","components":[{"name":"isEnabled","type":"bool","internalType":"bool"},{"name":"capacity","type":"uint128","internalType":"uint128"},{"name":"rate","type":"uint128","internalType":"uint128"}]}]},{"type":"error","name":"InvalidSourcePoolAddress","inputs":[{"name":"sourcePoolAddress","type":"bytes","internalType":"bytes"}]},{"type":"error","name":"InvalidToken","inputs":[{"name":"token","type":"address","internalType":"address"}]},{"type":"error","name":"NonExistentChain","inputs":[{"name":"remoteChainSelector","type":"uint64","internalType":"uint64"}]},{"type":"error","name":"RateLimitMustBeDisabled","inputs":[]},{"type":"error","name":"SenderNotAllowed","inputs":[{"name":"sender","type":"address","internalType":"address"}]},{"type":"error","name":"TokenMaxCapacityExceeded","inputs":[{"name":"capacity","type":"uint256","internalType":"uint256"},{"name":"requested","type":"uint256","internalType":"uint256"},{"name":"tokenAddress","type":"address","internalType":"address"}]},{"type":"error","name":"TokenRateLimitReached","inputs":[{"name":"minWaitInSeconds","type":"uint256","internalType":"uint256"},{"name":"available","type":"uint256","internalType":"uint256"},{"name":"tokenAddress","type":"address","internalType":"address"}]},{"type":"error","name":"Unauthorized","inputs":[{"name":"caller","type":"address","internalType":"address"}]},{"type":"error","name":"ZeroAddressNotAllowed","inputs":[]}],"bytecode":{"object":"0x604060e08152346200035e57620036b5803803806200001e8162000362565b92833981016080828203126200035e5781516001600160a01b038082168083036200035e576020858101516001600160401b0396919491908781116200035e5781019580601f880112156200035e57865196888811620002c4578760051b9087806200008c81850162000362565b809b815201928201019283116200035e5787809101915b838310620003435750505050620000ca6060620000c28a840162000388565b920162000388565b913315620002ff575f80546001600160a01b0319908116331790915593158015620002f4575b8015620002e9575b620002d8579084929160805260a05216906004541617600455825115158060c0526200019d575b8451613182908162000533823960805181818161100c0152818161131a01528181611d5701528181611ea801528181611f3901528181611fa10152818161215301528181612235015261227e015260a05181818161027e015281816113730152611db0015260c051818181610243015281816113ad0152611af90152f35b845194929382860190811186821017620002c45783525f855260c05115620002b3575f5b855181101562000228578082620001db600193896200039d565b511684620001e982620003df565b620001f8575b505001620001c1565b7f800671136ab6cfee9fbe5ed1fb7ca417811aca3cf864800d127b927adedf7566918751908152a15f84620001ef565b509293505f5b8451811015620002a457808462000248600193886200039d565b511680156200029d57836200025d82620004d5565b6200026d575b50505b016200022e565b7f2640d4d76caf8bf478aabfa982fa4e1c4eb71a37f93cd15e80dbc657911546d8918651908152a15f8362000263565b5062000266565b50509150505f8080806200011f565b82516335f4a7b360e01b8152600490fd5b634e487b7160e01b5f52604160045260245ffd5b88516342bcdf7f60e11b8152600490fd5b5084821615620000f8565b5084831615620000f0565b885162461bcd60e51b815260048101879052601860248201527f43616e6e6f7420736574206f776e657220746f207a65726f00000000000000006044820152606490fd5b8190620003508462000388565b8152019101908790620000a3565b5f80fd5b6040519190601f01601f191682016001600160401b03811183821017620002c457604052565b51906001600160a01b03821682036200035e57565b8051821015620003b25760209160051b010190565b634e487b7160e01b5f52603260045260245ffd5b600254811015620003b25760025f5260205f2001905f90565b5f818152600360205260409020548015620004cf575f1990808201818111620004bb5760025490838201918211620004bb578181036200046b575b505050600254801562000457578101906200043582620003c6565b909182549160031b1b191690556002555f5260036020525f6040812055600190565b634e487b7160e01b5f52603160045260245ffd5b620004a46200047e6200048e93620003c6565b90549060031b1c928392620003c6565b819391549060031b91821b915f19901b19161790565b90555f52600360205260405f20555f80806200041a565b634e487b7160e01b5f52601160045260245ffd5b50505f90565b805f52600360205260405f2054155f146200052d5760025468010000000000000000811015620002c457620005166200048e826001859401600255620003c6565b9055600254905f52600360205260405f2055600190565b505f9056fe6080806040526004361015610012575f80fd5b5f905f3560e01c90816301ffc9a7146122ee575080630917e776146122d15780630a2fd493146122ad57806321df0da714612269578063240028e8146122155780632e17de78146120cf5780633907753714611c0f5780633a02a42d14610e1e57806354c8a4f314611a8a5780636d3d1a5814611a6257806378a010b2146117d057806379ba5097146117265780637d54534e146116e35780638926f54f146116a15780638da5cb5b1461167a578063969de47a146116425780639a4575b91461124e578063a694fc3a14610fd5578063a7cd63b714610f18578063af58d59f14610e85578063b0f479a114610e5c578063b794658014610e23578063bb4d443614610e1e578063c0d7865514610d92578063c4bffe2b14610c6c578063c75eea9c14610b87578063cf7401f3146109c5578063db6327dc146102ad578063dc0bd97114610268578063e0351e131461022b5763f2fde38b14610173575f80fd5b346102285760203660031901126102285761018c6123c1565b610194612973565b6001600160a01b03908116903382146101e357600180546001600160a01b031916831790558254167fed8889f560326eb138920d842192f0eb3dd22b4f139c87a2c57538e05bae12788380a380f35b60405162461bcd60e51b815260206004820152601760248201527f43616e6e6f74207472616e7366657220746f2073656c660000000000000000006044820152606490fd5b80fd5b503461022857806003193601126102285760206040517f000000000000000000000000000000000000000000000000000000000000000015158152f35b50346102285780600319360112610228576040517f00000000000000000000000000000000000000000000000000000000000000006001600160a01b03168152602090f35b5034610228576020366003190112610228576004356001600160401b0381116109c1576102de903690600401612423565b906102e7612973565b825b8281106102f4578380f35b8060051b82013561013e19833603018112156109bd578201610140813603126109bd576040519060c082018281106001600160401b038211176108af5760405261033d8161236f565b825261034b602082016124f3565b6020830190815260408201356001600160401b0381116109b95761037290369084016126cf565b91604084019283526060810135906001600160401b0382116109b55761039e6103bf92369083016126cf565b60608601526103b03660808301612514565b608086015260e0369101612514565b60a08401526103d5608084015182511590612ad6565b6103e660a084015182511590612ad6565b5115610904576103ff6001600160401b03835116612ed9565b156108e2578051511580156108d5575b6108c35760808201516001600160801b03604082015116916001600160801b036020830151169263ffffffff421692511515936040519461044f8661249c565b81865284602087015260408601526060850152608084015260a08401516001600160801b03604082015116906001600160801b03602082015116905115156040519461049a8661249c565b828652602086015260408501526060840152608083015251606084015191604051938460808101106001600160401b036080870111176108af576080850160405284526020840152604083015260608201526001600160401b0382511686526007602052604086209061059b81516001600160801b038151166001600160801b031985541617845561055263ffffffff602083015116859081549063ffffffff60801b9060801b169063ffffffff60801b1916179055565b6040810151845460ff60a01b191690151560a01b60ff60a01b16178455606081015160809182015190911b6001600160801b0319166001600160801b0391909116176001840155565b60208181015180516002850180549383015163ffffffff60801b60809190911b166001600160801b039092166001600160a01b03199094169390931717825561062d91610601906040830151815460ff60a01b191690151560a01b60ff60a01b16179055565b606081015160809182015190911b6001600160801b0319166001600160801b0391909116176003840155565b60408101518051906001600160401b03821161089b5761065d82610654600487015461255b565b600487016127bb565b602090601f831160011461082c57918061069092606095948c9261077b575b50508160011b915f199060031b1c19161790565b60048401555b01518051906001600160401b038211610818576106c3826106ba600586015461255b565b600586016127bb565b602090601f83116001146107865761071a8360019796947f8d340f17e19058004c20453540862a9c62778504476f6756755cb33bcd6c38c296946005948d9261077b5750508160011b915f199060031b1c19161790565b9101555b6001600160401b0381511660608201519161077160a0608083015192015161076761075c604051968796610100908852806020890152870190612383565b93604086019061294b565b60a084019061294b565b0390a15b016102e9565b015190505f8061067c565b906005840189526020892091895b601f19851681106108005750837f8d340f17e19058004c20453540862a9c62778504476f6756755cb33bcd6c38c295936005936001999896938a94601f198116106107e8575b505050811b0191015561071e565b01515f1960f88460031b161c191690555f80806107da565b91926020600181928685015181550194019201610794565b634e487b7160e01b88526041600452602488fd5b90600485018a5260208a20918a5b601f1985168110610883575091839160019360609695601f1981161061086b575b505050811b016004840155610696565b01515f1960f88460031b161c191690555f808061085b565b9192602060018192868501518155019401920161083a565b634e487b7160e01b89526041600452602489fd5b634e487b7160e01b5f52604160045260245ffd5b6040516342bcdf7f60e11b8152600490fd5b506060820151511561040f565b60246001600160401b0383511660405190631d5ad3c560e01b82526004820152fd5b506109186001600160401b03825116612de1565b1561099357907f5204aec90a3c794d8e90fded8b46ae9c7c552803e7e832e0c1d358396d85991660206001600160401b0384816001965116895260078352610985600560408b208b81558b898201558b60028201558b600382015561097f60048201612903565b01612903565b5116604051908152a1610775565b6001600160401b03602491511660405190631e670e4b60e01b82526004820152fd5b8880fd5b8780fd5b8480fd5b5080fd5b50346102285760e0366003190112610228576109df612359565b6060366023190112610b8357604051906109f8826124b7565b6024358015158103610b835782526001600160801b03906044358281168103610b835760208401526064358281168103610b835760408401526060366083190112610b835760405191610a4a836124b7565b6084358015158103610b8357835260a4358181168103610b8357602084015260c4359081168103610b83576040830152600854336001600160a01b0391821614159081610b75575b50610b5d576001600160401b031691610ab6835f52600660205260405f2054151590565b15610b445791610b4060e092610b3685610af07f0350d63aa5f270e01729d00d627eeb8f3429772b1818c016c66a588a864f912b97612a2e565b8488526007602052610b058160408a20612b47565b610b0e83612a2e565b8488526007602052610b2683600260408b2001612b47565b604051948552602085019061294b565b608083019061294b565ba180f35b604051631e670e4b60e01b815260048101849052602490fd5b60405163472511eb60e11b8152336004820152602490fd5b90508454163314155f610a92565b5f80fd5b503461022857602036600319011261022857610c176040610c68926001600160401b03610bb2612359565b610bba61280d565b5016815260076020522060405190610bd18261249c565b600181549160ff6001600160801b0393848116865263ffffffff8160801c16602087015260a01c16151560408501520154908116606083015260801c60808201526129c4565b60405191829182919091608060a0820193816001600160801b039182815116855263ffffffff6020820151166020860152604081015115156040860152826060820151166060860152015116910152565b0390f35b5034610228578060031936011261022857604051809160055480835283602080940160055f527f036b6384b5eca791c62761152d0c79bb0604c104a5fb6f4eb0703f3154bb3db0925f5b86828210610d7c57505050610ccd925003846124d2565b825190610cf2610cdc83612738565b92610cea60405194856124d2565b808452612738565b82840190601f1901368237815b8551811015610d3057806001600160401b03610d1d600193896128c8565b5116610d2982876128c8565b5201610cff565b508390839260405193838594850191818652518092526040850193925b828110610d5c57505050500390f35b83516001600160401b031685528695509381019392810192600101610d4d565b8554845260019586019589955093019201610cb6565b503461022857602036600319011261022857610dac6123c1565b610db4612973565b6001600160a01b0381811680156108c357600480546001600160a01b03198116929092179055604080516001600160a01b0393909216831682529290911660208201527f02dc5c233404867c793b749c6d644beb2277536d18a7e7974d3f238e4c6f16849190a180f35b6123eb565b503461022857602036600319011261022857610c68610e48610e43612359565b612837565b604051918291602083526020830190612383565b50346102285780600319360112610228576004546040516001600160a01b039091168152602090f35b503461022857602036600319011261022857610c176040610c68926001600160401b03610eb0612359565b610eb861280d565b5016815260076020522060405190610ecf8261249c565b600360028201549160ff6001600160801b0393848116865263ffffffff8160801c16602087015260a01c16151560408501520154908116606083015260801c60808201526129c4565b50346102285780600319360112610228576040518091600254908183526020809301809260025f527f405787fa12a823e0f2b7631cc41b3ba8828b3321ca811111fa75cd3aa3bb5ace905f5b818110610fc15750505084610f7a9103856124d2565b60405193838594850191818652518092526040850193925b828110610fa157505050500390f35b83516001600160a01b031685528695509381019392810192600101610f92565b825484529286019260019283019201610f64565b5034610228576020806003193601126109c15760043590610ff782151561264a565b6040516370a0823160e01b81523360048201527f00000000000000000000000000000000000000000000000000000000000000006001600160a01b0316908281602481855afa80156111cd578491869161121d575b50106111d857604051636eb1769f60e11b81523360048201523060248201528281604481855afa80156111cd578491869161119c575b501061115e578184916064604051809481936323b872dd60e01b83523360048401523060248401528860448401525af1801561115357611126575b5033835260098152604083206110d4838254612800565b9055338352600a81524260408420556110ef82600b54612800565b600b5560405191825242908201527fdd2a19c3bdd089cbe77c04f5655f83de0504d6140d12c8667646f55d0557c4dc60403392a280f35b61114590823d841161114c575b61113d81836124d2565b8101906126b7565b505f6110bd565b503d611133565b6040513d86823e3d90fd5b60405162461bcd60e51b8152600481018390526016602482015275496e73756666696369656e7420616c6c6f77616e636560501b6044820152606490fd5b809250848092503d83116111c6575b6111b581836124d2565b81010312610b83578390515f611082565b503d6111ab565b6040513d87823e3d90fd5b60405162461bcd60e51b815260048101839052601a60248201527f496e73756666696369656e7420746f6b656e2062616c616e63650000000000006044820152606490fd5b809250848092503d8311611247575b61123681836124d2565b81010312610b83578390515f61104c565b503d61122c565b5034610b835760206003198181360112610b8357600435926001600160401b0391828511610b835760a0908536030112610b835760608360405161129181612481565b8281520152604051936112a38561249c565b806004013594838611610b83576112c2608096600436918501016126cf565b8152602491828101926112d48461236f565b9187840192835260448101906112e9826123d7565b936040860194855260648201359561130a60846060830194898652016123d7565b9b018b90526001600160a01b039a7f00000000000000000000000000000000000000000000000000000000000000008c1695908c1686810361162b57508b8b6001600160401b0360801b845160801b168760405180948193632cbc26bb60e01b835260048301527f0000000000000000000000000000000000000000000000000000000000000000165afa908115611533575f9161160e575b506115fc57518b167f00000000000000000000000000000000000000000000000000000000000000006115d5575b50888151166113eb815f52600660205260405f2054151590565b156115be578a8c6004541691866040518094819363a8d87a3b60e01b835260048301525afa8015611533578c915f91611584575b5016330361156d57916114488561144d938b8d979651169051905f526007875260405f20612f27565b612724565b604051632bdaf04d60e11b8152991660048a0152889081845afa968715611533575f9761153e575b50803b15610b8357604051632770a7eb60e21b815230600482015260248101929092525f908290604490829084905af1801561153357611520575b50359182168203610228575060409261150d6114ce610c6893612837565b93855192818401528083526114e283612481565b8551946114ee86612481565b8552808501928352855195869582875251918601526060850190612383565b9051838203601f19016040850152612383565b61152b91925061246e565b5f905f6114b0565b6040513d5f823e3d90fd5b9096508581813d8311611566575b61155681836124d2565b81010312610b835751955f611475565b503d61154c565b60405163728fe07b60e01b81523360048201528490fd5b8092508c8092503d83116115b7575b61159d81836124d2565b81010312610b8357518b81168103610b83578b905f61141f565b503d611593565b8490604051906354c8163f60e11b82526004820152fd5b805f5260038b5260405f20546113d1578490604051906368692cbb60e11b82526004820152fd5b604051630a75a23b60e31b8152600490fd5b61162591508c8d3d1061114c5761113d81836124d2565b5f6113a3565b85906040519063961c9a4f60e01b82526004820152fd5b34610b83576020366003190112610b83576001600160a01b036116636123c1565b165f52600a602052602060405f2054604051908152f35b34610b83575f366003190112610b83575f546040516001600160a01b039091168152602090f35b34610b83576020366003190112610b835760206116d96001600160401b036116c7612359565b165f52600660205260405f2054151590565b6040519015158152f35b34610b83576020366003190112610b83576116fc6123c1565b611704612973565b600880546001600160a01b0319166001600160a01b0392909216919091179055005b34610b83575f366003190112610b83576001546001600160a01b038082163303611792575f54916bffffffffffffffffffffffff60a01b9033828516175f55166001553391167f8be0079c531659141344cd1fd0a4f28419497f9722a3daafe3b4186f6b6457e05f80a3005b60405162461bcd60e51b815260206004820152601660248201527526bab9ba10313290383937b837b9b2b21037bbb732b960511b6044820152606490fd5b34610b83576040366003190112610b83576117e9612359565b60248035916001600160401b03808411610b835736602385011215610b8357836004013591818311610b835736848487010111610b8357611828612973565b169161183f835f52600660205260405f2054151590565b15611a4c57825f5260209160078352600460405f200191604051925f90848154926118698461255b565b92838352600194896001821691825f14611a2c5750506001146119ee575b50611894925003856124d2565b855f5260078552600460405f2001906118b7846118b1845461255b565b846127bb565b5f90601f851160011461195b57509282819261191283807fdb4d6220746a38cbc5335f7e108f7de80f482f4d23350253dfd0917df75a14bf9b9c976119299b9a995f9261194e5750508160011b915f199060031b1c19161790565b90555b604051968795604087526040870190612383565b938585038787015282855201858401375f828201850152601f01601f191601030190a2005b890101359050848e61067c565b90601f198516835f52875f20925f905b8282106119d5575050928593927fdb4d6220746a38cbc5335f7e108f7de80f482f4d23350253dfd0917df75a14bf999a9592856119299a999895106119ba575b5050600183811b019055611915565b86018301355f19600386901b60f8161c191690558a806119ab565b8b8401870135855593840193928901929089019061196b565b9150505f528486805f20845f915b858310611a1357505061189493508201018a611887565b80919294505483858b01015201910187908488936119fc565b60ff19168582015261189495151560051b85010192508c91506118879050565b604051631e670e4b60e01b815260048101849052fd5b34610b83575f366003190112610b83576008546040516001600160a01b039091168152602090f35b34610b83576040366003190112610b83576001600160401b03600435818111610b8357611abb903690600401612423565b602492919235918211610b8357611aee611adc611af6933690600401612423565b949092611ae7612973565b369161274f565b92369161274f565b907f000000000000000000000000000000000000000000000000000000000000000015611bfd575f5b8151811015611b85576001906001600160a01b03611b3d82856128c8565b5116611b4881612d0c565b611b54575b5001611b1f565b60207f800671136ab6cfee9fbe5ed1fb7ca417811aca3cf864800d127b927adedf756691604051908152a184611b4d565b825f5b8151811015611bfb576001906001600160a01b03611ba682856128c8565b51168015611bf557611bb781612e86565b611bc4575b505b01611b88565b60207f2640d4d76caf8bf478aabfa982fa4e1c4eb71a37f93cd15e80dbc657911546d891604051908152a183611bbc565b50611bbe565b005b6040516335f4a7b360e01b8152600490fd5b34610b8357600319602036820112610b8357600435906001600160401b038211610b835761010080918336030112610b83575f604051611c4e81612453565b526040519081018181106001600160401b038211176108af5760405281600401356001600160401b038111610b8357611c8d90600436918501016126cf565b8152611c9b6024830161236f565b6020820152611cac604483016123d7565b604082015260648201356060820152611cc7608483016123d7565b6080820190815260a48301356001600160401b038111610b8357611cf190600436918601016126cf565b60a08301526001600160401b0360c484013511610b8357611d1b36600460c48601358601016126cf565b60c083015260e48301356001600160401b038111610b8357611d4390600436918601016126cf565b60e0830152516001600160a01b03908116907f00000000000000000000000000000000000000000000000000000000000000001681036120b75750602081810151604051632cbc26bb60e01b815260809190911b67ffffffffffffffff60801b16600482015290816024817f00000000000000000000000000000000000000000000000000000000000000006001600160a01b03165afa908115611533575f91612098575b506115fc576001600160401b03602082015116611e10815f52600660205260405f2054151590565b1561208057602060018060a01b0360045416916044604051809481936383826b2b60e01b835260048301523360248301525afa908115611533575f91612061575b501561204957611e6d6001600160401b03602083015116612593565b805190811591821561202e575b5050612001578060606001600160401b036020611ed594015116910151905f52600760205260018060a01b037f00000000000000000000000000000000000000000000000000000000000000001690600260405f2001612f27565b6022198136030160c48201351215610b8357600460c482013582010135906001600160401b038211610b8357602460c4820135820101918036038313610b8357602060c483013583019182019190910312610b8357611f3660448201612724565b917f00000000000000000000000000000000000000000000000000000000000000006001600160a01b03163b15610b8357604051630ab714fb60e11b81526001600160a01b039384166004820152606483810135602483015291356044820152925f918491829084907f0000000000000000000000000000000000000000000000000000000000000000165af191821561153357602092611ff2575b50604051611fdf81612453565b6064820135905260646040519101358152f35b611ffb9061246e565b82611fd2565b60a001516040516324eb47e560e01b81526020600482015290819061202a906024830190612383565b0390fd5b60a08401518051602091820120920120141590508380611e7a565b60405163728fe07b60e01b8152336004820152602490fd5b61207a915060203d60201161114c5761113d81836124d2565b83611e51565b602490604051906354c8163f60e11b82526004820152fd5b6120b1915060203d60201161114c5761113d81836124d2565b83611de8565b6024906040519063961c9a4f60e01b82526004820152fd5b34610b8357602080600319360112610b8357600435906120f082151561264a565b335f52600981528160405f2054106121d157335f526009815260405f20612118838254612696565b905561212682600b54612696565b600b5560405163a9059cbb60e01b81523360048201526024810183905281816044815f6001600160a01b037f0000000000000000000000000000000000000000000000000000000000000000165af18015611533576121b4575b5060405191825242908201527f6f2d3e000c89d37446b7c0374c0125068ff316d1e3ee302336478a8cd03c233660403392a2005b6121ca90823d841161114c5761113d81836124d2565b5082612180565b6064906040519062461bcd60e51b82526004820152601b60248201527f496e73756666696369656e74207374616b65642062616c616e636500000000006044820152fd5b34610b83576020366003190112610b835760206122306123c1565b6040517f00000000000000000000000000000000000000000000000000000000000000006001600160a01b039081169216919091148152f35b34610b83575f366003190112610b83576040517f00000000000000000000000000000000000000000000000000000000000000006001600160a01b03168152602090f35b34610b83576020366003190112610b8357610c68610e486122cc612359565b612593565b34610b83575f366003190112610b83576020600b54604051908152f35b34610b83576020366003190112610b83576004359063ffffffff60e01b8216809203610b835760209163aff2afbf60e01b8114908115612348575b8115612337575b5015158152f35b6301ffc9a760e01b14905083612330565b630e64dd2960e01b81149150612329565b600435906001600160401b0382168203610b8357565b35906001600160401b0382168203610b8357565b91908251928382525f5b8481106123ad575050825f602080949584010152601f8019910116010190565b60208183018101518483018201520161238d565b600435906001600160a01b0382168203610b8357565b35906001600160a01b0382168203610b8357565b34610b83576020366003190112610b83576001600160a01b0361240c6123c1565b165f526009602052602060405f2054604051908152f35b9181601f84011215610b83578235916001600160401b038311610b83576020808501948460051b010111610b8357565b602081019081106001600160401b038211176108af57604052565b6001600160401b0381116108af57604052565b604081019081106001600160401b038211176108af57604052565b60a081019081106001600160401b038211176108af57604052565b606081019081106001600160401b038211176108af57604052565b90601f801991011681019081106001600160401b038211176108af57604052565b35908115158203610b8357565b35906001600160801b0382168203610b8357565b9190826060910312610b835760405161252c816124b7565b604061255681839561253d816124f3565b855261254b60208201612500565b602086015201612500565b910152565b90600182811c92168015612589575b602083101461257557565b634e487b7160e01b5f52602260045260245ffd5b91607f169161256a565b6001600160401b03165f52602060078152600460405f20019060405180925f9080546125be8161255b565b8085529160019180831690811561262857506001146125ea575b5050506125e7925003826124d2565b90565b5f90815285812095935091905b8183106126105750506125e793508201015f80806125d8565b855487840185015294850194869450918301916125f7565b925050506125e794925060ff191682840152151560051b8201015f80806125d8565b1561265157565b60405162461bcd60e51b815260206004820152601d60248201527f416d6f756e74206d7573742062652067726561746572207468616e20300000006044820152606490fd5b919082039182116126a357565b634e487b7160e01b5f52601160045260245ffd5b90816020910312610b8357518015158103610b835790565b81601f82011215610b83578035906001600160401b0382116108af5760405192612703601f8401601f1916602001856124d2565b82845260208383010111610b8357815f926020809301838601378301015290565b356001600160a01b0381168103610b835790565b6001600160401b0381116108af5760051b60200190565b929161275a82612738565b9161276860405193846124d2565b829481845260208094019160051b8101928311610b8357905b82821061278e5750505050565b83809161279a846123d7565b815201910190612781565b8181106127b0575050565b5f81556001016127a5565b9190601f81116127ca57505050565b6127f4925f5260205f20906020601f840160051c830193106127f6575b601f0160051c01906127a5565b565b90915081906127e7565b919082018092116126a357565b6040519061281a8261249c565b5f6080838281528260208201528260408201528260608201520152565b6001600160401b03165f52602060078152600560405f20019060405180925f9080546128628161255b565b80855291600191808316908115612628575060011461288a575050506125e7925003826124d2565b5f90815285812095935091905b8183106128b05750506125e793508201015f80806125d8565b85548784018501529485019486945091830191612897565b80518210156128dc5760209160051b010190565b634e487b7160e01b5f52603260045260245ffd5b818102929181159184041417156126a357565b61290d815461255b565b9081612917575050565b81601f5f9311600114612928575055565b908083918252612947601f60208420940160051c8401600185016127a5565b5555565b604090805115158352816020820151916001600160801b038093166020860152015116910152565b5f546001600160a01b0316330361298657565b60405162461bcd60e51b815260206004820152601660248201527527b7363c9031b0b63630b1363290313c9037bbb732b960511b6044820152606490fd5b6129cc61280d565b506001600160801b03806060830151169080835116906020840192612a1363ffffffff93612a0d612a008688511642612696565b8560808a015116906128f0565b90612800565b80821015612a2757505b1683524216905290565b9050612a1d565b805115612a87576001600160801b038060408301511690602083015116811090811591612a7e575b50612a5e5750565b604051632008344960e21b8152606491612a7c90600483019061294b565bfd5b9050155f612a56565b6001600160801b03806040830151161590811591612ac6575b50612aa85750565b6040516335a2be7360e21b8152606491612a7c90600483019061294b565b905060208201511615155f612aa0565b805115612b25576001600160801b038060408301511690602083015116811090811591612b1c575b50612a5e5750612b0a57565b60405163433fc33d60e01b8152600490fd5b9050155f612afe565b90506001600160801b03806040830151161590811591612ac65750612aa85750565b7f9ea3374b67bf275e6bb9c8ae68f9cae023e1c528b4b27e092f0bb209d3531c1991612c18606092805463ffffffff612b85818360801c1642612696565b9182612c2d575b5050506001600160801b0380916001826020870151169180548481168085105f14612c285750835b885160ff60a01b19919097161674ff00000000ffffffffffffffffffffffffffffffff19919091161794151560a01b60ff60a01b1694909417845560408601516001600160801b0319931660801b929092166001600160801b039190911617910155565b612c25604051809261294b565ba1565b612bb4565b612c93926001850154612c5a612c526001600160801b03938484169360801c906128f0565b838516612800565b80821015612c9b57505b63ffffffff60801b199116166001600160a01b031990911617429190911660801b63ffffffff60801b16178255565b5f8080612b8c565b9050612c64565b6002548110156128dc5760025f527f405787fa12a823e0f2b7631cc41b3ba8828b3321ca811111fa75cd3aa3bb5ace01905f90565b6005548110156128dc5760055f527f036b6384b5eca791c62761152d0c79bb0604c104a5fb6f4eb0703f3154bb3db001905f90565b5f818152600360205260409020548015612ddb575f19908082018181116126a357600254908382019182116126a357818103612d91575b5050506002548015612d7d57810190612d5b82612ca2565b909182549160031b1b191690556002555f5260036020525f6040812055600190565b634e487b7160e01b5f52603160045260245ffd5b612dc5612da0612daf93612ca2565b90549060031b1c928392612ca2565b819391549060031b91821b915f19901b19161790565b90555f52600360205260405f20555f8080612d43565b50505f90565b5f818152600660205260409020548015612ddb575f19908082018181116126a357600554908382019182116126a357818103612e52575b5050506005548015612d7d57810190612e3082612cd7565b909182549160031b1b191690556005555f5260066020525f6040812055600190565b612e70612e61612daf93612cd7565b90549060031b1c928392612cd7565b90555f52600660205260405f20555f8080612e18565b805f52600360205260405f2054155f14612ed457600254600160401b8110156108af57612ebd612daf826001859401600255612ca2565b9055600254905f52600360205260405f2055600190565b505f90565b805f52600660205260405f2054155f14612ed457600554600160401b8110156108af57612f10612daf826001859401600555612cd7565b9055600554905f52600660205260405f2055600190565b9091815460ff8160a01c16158015613144575b61313e576001600160801b039182821691600185019081549085821691612f6b63ffffffff809360801c1642612696565b90816130ce575b50505086811061306c5750858310612fcf575050918391612fb67f1871cdf8010e63f2eb8384381a68dfa7416dc571a5517e66e88b2d2d0c0a690a95602095612696565b166001600160801b0319825416179055604051908152a1565b5460801c612fdd8387612696565b5f1982018281116126a357612ff191612800565b81156130585704906001600160a01b0381161561303a57604051636864691d60e11b8152600481019290925260248201929092526001600160a01b039091166044820152606490fd5b50604491604051916302a4f38160e31b835260048301526024820152fd5b634e487b7160e01b5f52601260045260245ffd5b8690836001600160a01b038116156130b057604051630d3b2b9560e11b8152600481019290925260248201929092526001600160a01b039091166044820152606490fd5b506044916040519163f94ebcd160e01b835260048301526024820152fd5b83879293971161312c576130e992612a0d9160801c906128f0565b80821015613123575061311b815b875463ffffffff60801b19164290961660801b63ffffffff60801b16959095178755565b5f8080612f72565b61311b906130f7565b604051634b92ca1560e11b8152600490fd5b50505050565b508315612f3a56fea264697066735822122056f0a52446373433ad8e445802c88c663f34d650530b5cab47b5d3226768bbca64736f6c63430008180033","linkReferences":{}},"methodIdentifiers":{"acceptOwnership()":"79ba5097","applyAllowListUpdates(address[],address[])":"54c8a4f3","applyChainUpdates((uint64,bool,bytes,bytes,(bool,uint128,uint128),(bool,uint128,uint128))[])":"db6327dc","getAllowList()":"a7cd63b7","getAllowListEnabled()":"e0351e13","getCurrentInboundRateLimiterState(uint64)":"af58d59f","getCurrentOutboundRateLimiterState(uint64)":"c75eea9c","getRateLimitAdmin()":"6d3d1a58","getRemotePool(uint64)":"0a2fd493","getRemoteToken(uint64)":"b7946580","getRmnProxy()":"dc0bd971","getRouter()":"b0f479a1","getStakedBalance(address)":"3a02a42d","getStakingTimestamp(address)":"969de47a","getSupportedChains()":"c4bffe2b","getToken()":"21df0da7","getTotalStaked()":"0917e776","getVotingPower(address)":"bb4d4436","isSupportedChain(uint64)":"8926f54f","isSupportedToken(address)":"240028e8","lockOrBurn((bytes,uint64,address,uint256,address))":"9a4575b9","owner()":"8da5cb5b","releaseOrMint((bytes,uint64,address,uint256,address,bytes,bytes,bytes))":"39077537","setChainRateLimiterConfig(uint64,(bool,uint128,uint128),(bool,uint128,uint128))":"cf7401f3","setRateLimitAdmin(address)":"7d54534e","setRemotePool(uint64,bytes)":"78a010b2","setRouter(address)":"c0d78655","stake(uint256)":"a694fc3a","supportsInterface(bytes4)":"01ffc9a7","transferOwnership(address)":"f2fde38b","unstake(uint256)":"2e17de78"},"id":59}